{
  "address": "0xb7A53a98debF2eAc89aD534236fEB6028Bc0A962",
  "abi": [
    {
      "anonymous": false,
      "inputs": [
        {
          "indexed": false,
          "internalType": "string",
          "name": "uuid",
          "type": "string"
        }
      ],
      "name": "EscrowCreated",
      "type": "event"
    },
    {
      "anonymous": false,
      "inputs": [
        {
          "indexed": false,
          "internalType": "string",
          "name": "uuid",
          "type": "string"
        },
        {
          "indexed": true,
          "internalType": "address",
          "name": "market",
          "type": "address"
        }
      ],
      "name": "FulfillmentConfirmed",
      "type": "event"
    },
    {
      "anonymous": false,
      "inputs": [
        {
          "indexed": false,
          "internalType": "string",
          "name": "uuid",
          "type": "string"
        },
        {
          "indexed": true,
          "internalType": "address",
          "name": "market",
          "type": "address"
        },
        {
          "indexed": false,
          "internalType": "uint256",
          "name": "marketShare",
          "type": "uint256"
        },
        {
          "indexed": true,
          "internalType": "address",
          "name": "seller",
          "type": "address"
        },
        {
          "indexed": false,
          "internalType": "uint256",
          "name": "sellerShare",
          "type": "uint256"
        }
      ],
      "name": "FundsDistributed",
      "type": "event"
    },
    {
      "anonymous": false,
      "inputs": [
        {
          "indexed": false,
          "internalType": "string",
          "name": "uuid",
          "type": "string"
        },
        {
          "indexed": true,
          "internalType": "address",
          "name": "receiver",
          "type": "address"
        }
      ],
      "name": "ProductUsedConfirmed",
      "type": "event"
    },
    {
      "inputs": [
        {
          "internalType": "string",
          "name": "uuid",
          "type": "string"
        }
      ],
      "name": "ConfirmFulfillment",
      "outputs": [],
      "stateMutability": "nonpayable",
      "type": "function"
    },
    {
      "inputs": [
        {
          "internalType": "string",
          "name": "uuid",
          "type": "string"
        }
      ],
      "name": "ConfirmProductUsed",
      "outputs": [],
      "stateMutability": "nonpayable",
      "type": "function"
    },
    {
      "inputs": [
        {
          "internalType": "string",
          "name": "uuid",
          "type": "string"
        }
      ],
      "name": "DistributeFunds",
      "outputs": [],
      "stateMutability": "nonpayable",
      "type": "function"
    },
    {
      "inputs": [
        {
          "internalType": "string",
          "name": "uuid",
          "type": "string"
        },
        {
          "internalType": "address",
          "name": "_buyer",
          "type": "address"
        },
        {
          "internalType": "address",
          "name": "_seller",
          "type": "address"
        },
        {
          "internalType": "address",
          "name": "_receiver",
          "type": "address"
        },
        {
          "internalType": "address",
          "name": "_market",
          "type": "address"
        },
        {
          "internalType": "uint256",
          "name": "_contractPrice",
          "type": "uint256"
        }
      ],
      "name": "createEscrow",
      "outputs": [],
      "stateMutability": "payable",
      "type": "function"
    },
    {
      "inputs": [
        {
          "internalType": "string",
          "name": "uuid",
          "type": "string"
        }
      ],
      "name": "escrowStatus",
      "outputs": [
        {
          "internalType": "enum Escrow.ContractChoices",
          "name": "",
          "type": "uint8"
        }
      ],
      "stateMutability": "view",
      "type": "function"
    },
    {
      "inputs": [
        {
          "internalType": "string",
          "name": "",
          "type": "string"
        }
      ],
      "name": "escrows",
      "outputs": [
        {
          "internalType": "address",
          "name": "buyer",
          "type": "address"
        },
        {
          "internalType": "address",
          "name": "seller",
          "type": "address"
        },
        {
          "internalType": "address",
          "name": "receiver",
          "type": "address"
        },
        {
          "internalType": "address",
          "name": "market",
          "type": "address"
        },
        {
          "internalType": "uint256",
          "name": "contractPrice",
          "type": "uint256"
        },
        {
          "internalType": "enum Escrow.ContractChoices",
          "name": "State",
          "type": "uint8"
        }
      ],
      "stateMutability": "view",
      "type": "function"
    },
    {
      "stateMutability": "payable",
      "type": "receive"
    }
  ],
  "transactionHash": "0x15c8a955565b985987890fb405bc33b3a3d4a3bb07487a0305e5d297b275af9f",
  "args": [],
  "numDeployments": 1,
  "solcInputHash": "6fd087c0483621f74fe4c5282584d70f",
  "bytecode": "0x608060405234801561001057600080fd5b50610bdc806100206000396000f3fe6080604052600436106100595760003560e01c806315c8bcf014610065578063236147ca146100875780633def28b9146100a75780635cc9f864146100c75780635ddde39b146101525780636ad094521461016557600080fd5b3661006057005b600080fd5b34801561007157600080fd5b50610085610080366004610944565b610192565b005b34801561009357600080fd5b506100856100a2366004610944565b610329565b3480156100b357600080fd5b506100856100c2366004610944565b6104a4565b3480156100d357600080fd5b506101376100e2366004610944565b8051808201602090810180516000825292820191909301209152805460018201546002830154600384015460048501546005909501546001600160a01b03948516959385169492831693919092169160ff1686565b604051610149969594939291906109b9565b60405180910390f35b610085610160366004610a1c565b610629565b34801561017157600080fd5b50610185610180366004610944565b610874565b6040516101499190610aa4565b60026000826040516101a49190610adc565b9081526040519081900360200190206005015460ff1660028111156101cb576101cb610981565b1461020a5760405162461bcd60e51b8152600401610201906020808252600490820152633298181b60e11b604082015260600190565b60405180910390fd5b6000808260405161021b9190610adc565b908152602001604051809103902090506000600a826004015461023e9190610af8565b905060008183600401546102529190610b1a565b60038401546040519192506001600160a01b03169083156108fc029084906000818181858888f1935050505015801561028f573d6000803e3d6000fd5b5060018301546040516001600160a01b039091169082156108fc029083906000818181858888f193505050501580156102cc573d6000803e3d6000fd5b50600183015460038401546040516001600160a01b0392831692909116907f3e5a95c072b7c6fa3c73432c8c663074bcf5d61c2a4b29225d5e17e99ddf46fd9061031b90889087908790610b67565b60405180910390a350505050565b6000816040516103399190610adc565b90815260405190819003602001902060030154336001600160a01b039091161461038e5760405162461bcd60e51b8152600401610201906020808252600490820152630653032360e41b604082015260600190565b6000808260405161039f9190610adc565b9081526040519081900360200190206005015460ff1660028111156103c6576103c6610981565b146103fc5760405162461bcd60e51b815260040161020190602080825260049082015263194c0c0d60e21b604082015260600190565b600160008260405161040e9190610adc565b908152604051908190036020019020600501805460ff1916600183600281111561043a5761043a610981565b021790555060008160405161044f9190610adc565b908152604051908190036020018120600301546001600160a01b0316907f0aea8e6e8c89ab3245147625734c071eeedaebe6eea64786e83d672cae6af44090610499908490610b8c565b60405180910390a250565b6000816040516104b49190610adc565b90815260405190819003602001902060030154336001600160a01b03909116146105095760405162461bcd60e51b8152600401610201906020808252600490820152630653032360e41b604082015260600190565b600160008260405161051b9190610adc565b9081526040519081900360200190206005015460ff16600281111561054257610542610981565b146105785760405162461bcd60e51b8152600401610201906020808252600490820152636530303560e01b604082015260600190565b600260008260405161058a9190610adc565b908152604051908190036020019020600501805460ff191660018360028111156105b6576105b6610981565b02179055506000816040516105cb9190610adc565b908152604051908190036020018120600201546001600160a01b0316907fb4d5032b4809916079d3598ce54492b098275524f242225bdddd2fd64e09e37290610615908490610b8c565b60405180910390a261062681610192565b50565b803410156106625760405162461bcd60e51b8152600401610201906020808252600490820152633298181960e11b604082015260600190565b336001600160a01b038616146106a35760405162461bcd60e51b8152600401610201906020808252600490820152636530303360e01b604082015260600190565b60006001600160a01b03166000876040516106be9190610adc565b908152604051908190036020019020546001600160a01b0316146107155760405162461bcd60e51b815260206004820152600e60248201526d657363726f7720616c726561647960901b6044820152606401610201565b6040518060c00160405280866001600160a01b03168152602001856001600160a01b03168152602001846001600160a01b03168152602001836001600160a01b031681526020018281526020016000600281111561077557610775610981565b8152506000876040516107889190610adc565b9081526040805160209281900383019020835181546001600160a01b03199081166001600160a01b039283161783559385015160018084018054871692841692909217909155928501516002808401805487169284169290921790915560608601516003840180549096169216919091179093556080840151600482015560a084015160058201805492949193909260ff191691849081111561082d5761082d610981565b02179055509050507f8bb98c86fca17d1296e36d0d27879826f874ae77e12c0223f7dec6de6d4c0be5866040516108649190610b8c565b60405180910390a1505050505050565b600080826040516108859190610adc565b9081526040519081900360200190206005015460ff1692915050565b634e487b7160e01b600052604160045260246000fd5b600082601f8301126108c857600080fd5b813567ffffffffffffffff808211156108e3576108e36108a1565b604051601f8301601f19908116603f0116810190828211818310171561090b5761090b6108a1565b8160405283815286602085880101111561092457600080fd5b836020870160208301376000602085830101528094505050505092915050565b60006020828403121561095657600080fd5b813567ffffffffffffffff81111561096d57600080fd5b610979848285016108b7565b949350505050565b634e487b7160e01b600052602160045260246000fd5b600381106109b557634e487b7160e01b600052602160045260246000fd5b9052565b6001600160a01b03878116825286811660208301528581166040830152841660608201526080810183905260c081016109f560a0830184610997565b979650505050505050565b80356001600160a01b0381168114610a1757600080fd5b919050565b60008060008060008060c08789031215610a3557600080fd5b863567ffffffffffffffff811115610a4c57600080fd5b610a5889828a016108b7565b965050610a6760208801610a00565b9450610a7560408801610a00565b9350610a8360608801610a00565b9250610a9160808801610a00565b915060a087013590509295509295509295565b60208101610ab28284610997565b92915050565b60005b83811015610ad3578181015183820152602001610abb565b50506000910152565b60008251610aee818460208701610ab8565b9190910192915050565b600082610b1557634e487b7160e01b600052601260045260246000fd5b500490565b81810381811115610ab257634e487b7160e01b600052601160045260246000fd5b60008151808452610b53816020860160208601610ab8565b601f01601f19169290920160200192915050565b606081526000610b7a6060830186610b3b565b60208301949094525060400152919050565b602081526000610b9f6020830184610b3b565b939250505056fea264697066735822122056d9f7338bbc3cbded9fcfae8890a3237b3b2683bf88d74171d92117efb6520e64736f6c63430008140033",
  "devdoc": {
    "kind": "dev",
    "methods": {},
    "version": 1
  },
  "userdoc": {
    "kind": "user",
    "methods": {},
    "version": 1
  },
  "storageLayout": {
    "storage": [
      {
        "astId": 24,
        "contract": "contracts/Escrow.sol:Escrow",
        "label": "escrows",
        "offset": 0,
        "slot": "0",
        "type": "t_mapping(t_string_memory_ptr,t_struct(EscrowData)19_storage)"
      }
    ],
    "types": {
      "t_address": {
        "encoding": "inplace",
        "label": "address",
        "numberOfBytes": "20"
      },
      "t_enum(ContractChoices)5": {
        "encoding": "inplace",
        "label": "enum Escrow.ContractChoices",
        "numberOfBytes": "1"
      },
      "t_mapping(t_string_memory_ptr,t_struct(EscrowData)19_storage)": {
        "encoding": "mapping",
        "key": "t_string_memory_ptr",
        "label": "mapping(string => struct Escrow.EscrowData)",
        "numberOfBytes": "32",
        "value": "t_struct(EscrowData)19_storage"
      },
      "t_string_memory_ptr": {
        "encoding": "bytes",
        "label": "string",
        "numberOfBytes": "32"
      },
      "t_struct(EscrowData)19_storage": {
        "encoding": "inplace",
        "label": "struct Escrow.EscrowData",
        "members": [
          {
            "astId": 7,
            "contract": "contracts/Escrow.sol:Escrow",
            "label": "buyer",
            "offset": 0,
            "slot": "0",
            "type": "t_address"
          },
          {
            "astId": 9,
            "contract": "contracts/Escrow.sol:Escrow",
            "label": "seller",
            "offset": 0,
            "slot": "1",
            "type": "t_address"
          },
          {
            "astId": 11,
            "contract": "contracts/Escrow.sol:Escrow",
            "label": "receiver",
            "offset": 0,
            "slot": "2",
            "type": "t_address"
          },
          {
            "astId": 13,
            "contract": "contracts/Escrow.sol:Escrow",
            "label": "market",
            "offset": 0,
            "slot": "3",
            "type": "t_address"
          },
          {
            "astId": 15,
            "contract": "contracts/Escrow.sol:Escrow",
            "label": "contractPrice",
            "offset": 0,
            "slot": "4",
            "type": "t_uint256"
          },
          {
            "astId": 18,
            "contract": "contracts/Escrow.sol:Escrow",
            "label": "State",
            "offset": 0,
            "slot": "5",
            "type": "t_enum(ContractChoices)5"
          }
        ],
        "numberOfBytes": "192"
      },
      "t_uint256": {
        "encoding": "inplace",
        "label": "uint256",
        "numberOfBytes": "32"
      }
    }
  }
}