{
  "address": "0xF4770fc044f679a14131404B213CcbcE9Dd4F5D1",
  "abi": [
    {
      "inputs": [
        {
          "internalType": "address",
          "name": "_escrowImplementation",
          "type": "address"
        }
      ],
      "stateMutability": "nonpayable",
      "type": "constructor"
    },
    {
      "anonymous": false,
      "inputs": [
        {
          "indexed": false,
          "internalType": "address",
          "name": "newImplementation",
          "type": "address"
        }
      ],
      "name": "escrowImplementationUpdated",
      "type": "event"
    },
    {
      "stateMutability": "payable",
      "type": "fallback"
    },
    {
      "inputs": [],
      "name": "escrowImplementation",
      "outputs": [
        {
          "internalType": "address",
          "name": "",
          "type": "address"
        }
      ],
      "stateMutability": "view",
      "type": "function"
    },
    {
      "inputs": [],
      "name": "latestEscrow",
      "outputs": [
        {
          "internalType": "address",
          "name": "",
          "type": "address"
        }
      ],
      "stateMutability": "view",
      "type": "function"
    },
    {
      "inputs": [
        {
          "internalType": "address",
          "name": "_newescrowImplementation",
          "type": "address"
        }
      ],
      "name": "updateescrowImplementation",
      "outputs": [],
      "stateMutability": "nonpayable",
      "type": "function"
    },
    {
      "stateMutability": "payable",
      "type": "receive"
    }
  ],
  "transactionHash": "0x4e95ccc6a25da388404b0b2ec544b4d61999ba08248d269f6a99df3231d47044",
  "args": [
    "0xb7A53a98debF2eAc89aD534236fEB6028Bc0A962"
  ],
  "numDeployments": 1,
  "solcInputHash": "a835e6f64bfdb0eb6815c213eb12f252",
  "bytecode": "0x608060405234801561001057600080fd5b506040516102f83803806102f883398101604081905261002f91610092565b6100388161003e565b506100c2565b600180546001600160a01b0319166001600160a01b0383169081179091556040519081527fe2b4f4f808232380bd1584a7a88e8543e449bd76363a1b66bca68bab031fffa39060200160405180910390a150565b6000602082840312156100a457600080fd5b81516001600160a01b03811681146100bb57600080fd5b9392505050565b610227806100d16000396000f3fe6080604052600436106100385760003560e01c80634ca8ff5a146100695780639f0833d8146100a5578063c14c5fc1146100c557610054565b3661005457600154610052906001600160a01b03166100e5565b005b600154610052906001600160a01b03166100e5565b34801561007557600080fd5b50600154610089906001600160a01b031681565b6040516001600160a01b03909116815260200160405180910390f35b3480156100b157600080fd5b50600054610089906001600160a01b031681565b3480156100d157600080fd5b506100526100e03660046101c1565b61016d565b6001600160a01b0381166101495760405162461bcd60e51b815260206004820152602160248201527f496d706c656d656e746174696f6e2061646472657373206973206e6f742073656044820152601d60fa1b606482015260840160405180910390fd5b3660008037600080366000845af43d6000803e808015610168573d6000f35b3d6000fd5b600180546001600160a01b0319166001600160a01b0383169081179091556040519081527fe2b4f4f808232380bd1584a7a88e8543e449bd76363a1b66bca68bab031fffa39060200160405180910390a150565b6000602082840312156101d357600080fd5b81356001600160a01b03811681146101ea57600080fd5b939250505056fea26469706673582212205dfe74517eca143a543582fbf126bbbb9c15a5dc91bfd76db64cc2cf319fd2a264736f6c63430008140033",
  "devdoc": {
    "kind": "dev",
    "methods": {},
    "version": 1
  },
  "userdoc": {
    "kind": "user",
    "methods": {},
    "version": 1
  },
  "storageLayout": {
    "storage": [
      {
        "astId": 297,
        "contract": "contracts/EscrowProxy.sol:EscrowProxy",
        "label": "latestEscrow",
        "offset": 0,
        "slot": "0",
        "type": "t_address"
      },
      {
        "astId": 299,
        "contract": "contracts/EscrowProxy.sol:EscrowProxy",
        "label": "escrowImplementation",
        "offset": 0,
        "slot": "1",
        "type": "t_address"
      }
    ],
    "types": {
      "t_address": {
        "encoding": "inplace",
        "label": "address",
        "numberOfBytes": "20"
      }
    }
  }
}