{
  "address": "0x2D789b269194AD36cC350c6954126F25579556F2",
  "abi": [
    {
      "anonymous": false,
      "inputs": [
        {
          "indexed": false,
          "internalType": "string",
          "name": "uuid",
          "type": "string"
        }
      ],
      "name": "EscrowCreated",
      "type": "event"
    },
    {
      "anonymous": false,
      "inputs": [
        {
          "indexed": false,
          "internalType": "string",
          "name": "uuid",
          "type": "string"
        },
        {
          "indexed": true,
          "internalType": "address",
          "name": "market",
          "type": "address"
        }
      ],
      "name": "FulfillmentConfirmed",
      "type": "event"
    },
    {
      "anonymous": false,
      "inputs": [
        {
          "indexed": false,
          "internalType": "string",
          "name": "uuid",
          "type": "string"
        },
        {
          "indexed": true,
          "internalType": "address",
          "name": "market",
          "type": "address"
        },
        {
          "indexed": false,
          "internalType": "uint256",
          "name": "marketShare",
          "type": "uint256"
        },
        {
          "indexed": true,
          "internalType": "address",
          "name": "seller",
          "type": "address"
        },
        {
          "indexed": false,
          "internalType": "uint256",
          "name": "sellerShare",
          "type": "uint256"
        }
      ],
      "name": "FundsDistributed",
      "type": "event"
    },
    {
      "anonymous": false,
      "inputs": [
        {
          "indexed": false,
          "internalType": "string",
          "name": "uuid",
          "type": "string"
        },
        {
          "indexed": true,
          "internalType": "address",
          "name": "receiver",
          "type": "address"
        }
      ],
      "name": "ProductUsedConfirmed",
      "type": "event"
    },
    {
      "inputs": [
        {
          "internalType": "string",
          "name": "uuid",
          "type": "string"
        }
      ],
      "name": "confirmFulfillment",
      "outputs": [],
      "stateMutability": "nonpayable",
      "type": "function"
    },
    {
      "inputs": [
        {
          "internalType": "string",
          "name": "uuid",
          "type": "string"
        }
      ],
      "name": "confirmProductUsed",
      "outputs": [],
      "stateMutability": "nonpayable",
      "type": "function"
    },
    {
      "inputs": [
        {
          "internalType": "string",
          "name": "uuid",
          "type": "string"
        },
        {
          "internalType": "address",
          "name": "_buyer",
          "type": "address"
        },
        {
          "internalType": "address",
          "name": "_seller",
          "type": "address"
        },
        {
          "internalType": "address",
          "name": "_receiver",
          "type": "address"
        },
        {
          "internalType": "address",
          "name": "_market",
          "type": "address"
        },
        {
          "internalType": "uint256",
          "name": "_contractPrice",
          "type": "uint256"
        }
      ],
      "name": "createEscrow",
      "outputs": [],
      "stateMutability": "payable",
      "type": "function"
    },
    {
      "inputs": [
        {
          "internalType": "string",
          "name": "uuid",
          "type": "string"
        }
      ],
      "name": "escrowStatus",
      "outputs": [
        {
          "internalType": "enum Escrow.ContractStateChoices",
          "name": "",
          "type": "uint8"
        }
      ],
      "stateMutability": "view",
      "type": "function"
    },
    {
      "inputs": [
        {
          "internalType": "string",
          "name": "",
          "type": "string"
        }
      ],
      "name": "escrows",
      "outputs": [
        {
          "internalType": "address",
          "name": "buyer",
          "type": "address"
        },
        {
          "internalType": "address",
          "name": "seller",
          "type": "address"
        },
        {
          "internalType": "address",
          "name": "receiver",
          "type": "address"
        },
        {
          "internalType": "address",
          "name": "market",
          "type": "address"
        },
        {
          "internalType": "uint256",
          "name": "contractPrice",
          "type": "uint256"
        },
        {
          "internalType": "enum Escrow.ContractStateChoices",
          "name": "state",
          "type": "uint8"
        }
      ],
      "stateMutability": "view",
      "type": "function"
    },
    {
      "stateMutability": "payable",
      "type": "receive"
    }
  ],
  "transactionHash": "0x45bcc5323611b2805b207f0fbb689744ef955e52ee5a081e9d78312c528b1f9b",
  "args": [],
  "numDeployments": 2,
  "solcInputHash": "33c1bbb224064604327b486eb789d49d",
  "bytecode": "0x608060405234801561001057600080fd5b50610bb8806100206000396000f3fe60806040526004361061004e5760003560e01c80635cc9f8641461005a5780635ddde39b146100e55780636ad09452146100fa578063928dbc8714610127578063aa950fda1461014757600080fd5b3661005557005b600080fd5b34801561006657600080fd5b506100ca610075366004610920565b8051808201602090810180516000825292820191909301209152805460018201546002830154600384015460048501546005909501546001600160a01b03948516959385169492831693919092169160ff1686565b6040516100dc96959493929190610995565b60405180910390f35b6100f86100f33660046109f8565b610167565b005b34801561010657600080fd5b5061011a610115366004610920565b6103c2565b6040516100dc9190610a80565b34801561013357600080fd5b506100f8610142366004610920565b6103ef565b34801561015357600080fd5b506100f8610162366004610920565b610574565b803410156101a95760405162461bcd60e51b81526004016101a0906020808252600490820152633298181960e11b604082015260600190565b60405180910390fd5b336001600160a01b038616146101ea5760405162461bcd60e51b81526004016101a0906020808252600490820152636530303360e01b604082015260600190565b60006001600160a01b03166000876040516102059190610ab8565b908152604051908190036020019020546001600160a01b0316146102635760405162461bcd60e51b8152602060048201526015602482015274457363726f7720616c72656164792065786973747360581b60448201526064016101a0565b6040518060c00160405280866001600160a01b03168152602001856001600160a01b03168152602001846001600160a01b03168152602001836001600160a01b03168152602001828152602001600060028111156102c3576102c361095d565b8152506000876040516102d69190610ab8565b9081526040805160209281900383019020835181546001600160a01b03199081166001600160a01b039283161783559385015160018084018054871692841692909217909155928501516002808401805487169284169290921790915560608601516003840180549096169216919091179093556080840151600482015560a084015160058201805492949193909260ff191691849081111561037b5761037b61095d565b02179055509050507f8bb98c86fca17d1296e36d0d27879826f874ae77e12c0223f7dec6de6d4c0be5866040516103b29190610b00565b60405180910390a1505050505050565b600080826040516103d39190610ab8565b9081526040519081900360200190206005015460ff1692915050565b6000816040516103ff9190610ab8565b90815260405190819003602001902060030154336001600160a01b03909116146104545760405162461bcd60e51b81526004016101a0906020808252600490820152630653032360e41b604082015260600190565b60016000826040516104669190610ab8565b9081526040519081900360200190206005015460ff16600281111561048d5761048d61095d565b146104c35760405162461bcd60e51b81526004016101a0906020808252600490820152636530323160e01b604082015260600190565b60026000826040516104d59190610ab8565b908152604051908190036020019020600501805460ff191660018360028111156105015761050161095d565b02179055506000816040516105169190610ab8565b908152604051908190036020018120600301546001600160a01b0316907fb4d5032b4809916079d3598ce54492b098275524f242225bdddd2fd64e09e37290610560908490610b00565b60405180910390a2610571816106ef565b50565b6000816040516105849190610ab8565b90815260405190819003602001902060030154336001600160a01b03909116146105d95760405162461bcd60e51b81526004016101a090602080825260049082015263194c0c8d60e21b604082015260600190565b600080826040516105ea9190610ab8565b9081526040519081900360200190206005015460ff1660028111156106115761061161095d565b146106475760405162461bcd60e51b81526004016101a0906020808252600490820152636530313360e01b604082015260600190565b60016000826040516106599190610ab8565b908152604051908190036020019020600501805460ff191660018360028111156106855761068561095d565b021790555060008160405161069a9190610ab8565b908152604051908190036020018120600201546001600160a01b0316907f0aea8e6e8c89ab3245147625734c071eeedaebe6eea64786e83d672cae6af440906106e4908490610b00565b60405180910390a250565b60026000826040516107019190610ab8565b9081526040519081900360200190206005015460ff1660028111156107285761072861095d565b1461075e5760405162461bcd60e51b81526004016101a0906020808252600490820152633298191960e11b604082015260600190565b6000808260405161076f9190610ab8565b908152602001604051809103902090506000600a82600401546107929190610b1a565b905060008183600401546107a69190610b3c565b60038401546040519192506001600160a01b03169083156108fc029084906000818181858888f193505050501580156107e3573d6000803e3d6000fd5b5060018301546040516001600160a01b039091169082156108fc029083906000818181858888f19350505050158015610820573d6000803e3d6000fd5b50600183015460038401546040516001600160a01b0392831692909116907f3e5a95c072b7c6fa3c73432c8c663074bcf5d61c2a4b29225d5e17e99ddf46fd9061086f90889087908790610b5d565b60405180910390a350505050565b634e487b7160e01b600052604160045260246000fd5b600082601f8301126108a457600080fd5b813567ffffffffffffffff808211156108bf576108bf61087d565b604051601f8301601f19908116603f011681019082821181831017156108e7576108e761087d565b8160405283815286602085880101111561090057600080fd5b836020870160208301376000602085830101528094505050505092915050565b60006020828403121561093257600080fd5b813567ffffffffffffffff81111561094957600080fd5b61095584828501610893565b949350505050565b634e487b7160e01b600052602160045260246000fd5b6003811061099157634e487b7160e01b600052602160045260246000fd5b9052565b6001600160a01b03878116825286811660208301528581166040830152841660608201526080810183905260c081016109d160a0830184610973565b979650505050505050565b80356001600160a01b03811681146109f357600080fd5b919050565b60008060008060008060c08789031215610a1157600080fd5b863567ffffffffffffffff811115610a2857600080fd5b610a3489828a01610893565b965050610a43602088016109dc565b9450610a51604088016109dc565b9350610a5f606088016109dc565b9250610a6d608088016109dc565b915060a087013590509295509295509295565b60208101610a8e8284610973565b92915050565b60005b83811015610aaf578181015183820152602001610a97565b50506000910152565b60008251610aca818460208701610a94565b9190910192915050565b60008151808452610aec816020860160208601610a94565b601f01601f19169290920160200192915050565b602081526000610b136020830184610ad4565b9392505050565b600082610b3757634e487b7160e01b600052601260045260246000fd5b500490565b81810381811115610a8e57634e487b7160e01b600052601160045260246000fd5b606081526000610b706060830186610ad4565b6020830194909452506040015291905056fea264697066735822122017997e3ff1e747f099c62a811ee9867bfddbc4940d478b16f83c268b6ade591364736f6c63430008140033",
  "devdoc": {
    "kind": "dev",
    "methods": {},
    "version": 1
  },
  "userdoc": {
    "kind": "user",
    "methods": {},
    "version": 1
  },
  "storageLayout": {
    "storage": [
      {
        "astId": 24,
        "contract": "contracts/Escrow.sol:Escrow",
        "label": "escrows",
        "offset": 0,
        "slot": "0",
        "type": "t_mapping(t_string_memory_ptr,t_struct(EscrowData)19_storage)"
      }
    ],
    "types": {
      "t_address": {
        "encoding": "inplace",
        "label": "address",
        "numberOfBytes": "20"
      },
      "t_enum(ContractStateChoices)5": {
        "encoding": "inplace",
        "label": "enum Escrow.ContractStateChoices",
        "numberOfBytes": "1"
      },
      "t_mapping(t_string_memory_ptr,t_struct(EscrowData)19_storage)": {
        "encoding": "mapping",
        "key": "t_string_memory_ptr",
        "label": "mapping(string => struct Escrow.EscrowData)",
        "numberOfBytes": "32",
        "value": "t_struct(EscrowData)19_storage"
      },
      "t_string_memory_ptr": {
        "encoding": "bytes",
        "label": "string",
        "numberOfBytes": "32"
      },
      "t_struct(EscrowData)19_storage": {
        "encoding": "inplace",
        "label": "struct Escrow.EscrowData",
        "members": [
          {
            "astId": 7,
            "contract": "contracts/Escrow.sol:Escrow",
            "label": "buyer",
            "offset": 0,
            "slot": "0",
            "type": "t_address"
          },
          {
            "astId": 9,
            "contract": "contracts/Escrow.sol:Escrow",
            "label": "seller",
            "offset": 0,
            "slot": "1",
            "type": "t_address"
          },
          {
            "astId": 11,
            "contract": "contracts/Escrow.sol:Escrow",
            "label": "receiver",
            "offset": 0,
            "slot": "2",
            "type": "t_address"
          },
          {
            "astId": 13,
            "contract": "contracts/Escrow.sol:Escrow",
            "label": "market",
            "offset": 0,
            "slot": "3",
            "type": "t_address"
          },
          {
            "astId": 15,
            "contract": "contracts/Escrow.sol:Escrow",
            "label": "contractPrice",
            "offset": 0,
            "slot": "4",
            "type": "t_uint256"
          },
          {
            "astId": 18,
            "contract": "contracts/Escrow.sol:Escrow",
            "label": "state",
            "offset": 0,
            "slot": "5",
            "type": "t_enum(ContractStateChoices)5"
          }
        ],
        "numberOfBytes": "192"
      },
      "t_uint256": {
        "encoding": "inplace",
        "label": "uint256",
        "numberOfBytes": "32"
      }
    }
  }
}